:100000000C942A000C9447000C9447000C94470071
:100010000C9447000C9447000C9447000C94470044
:100020000C9447000C9447000C9447000C94470034
:100030000C9447000C9463060C9447000C94470002
:100040000C9447000C9447000C9447000C94470014
:100050000C94470011241FBECFE5D8E0DEBFCDBF12
:1000600010E0A0E6B0E0E2EDF1E302C005900D92F1
:10007000A839B107D9F710E0A8E9B0E001C01D9296
:10008000AA39B107E1F70E943C180C94E7180C94C8
:100090000000EF92FF920F931F937B018C0120E0F1
:1000A00030E040E05FE40E94490388238CF0C801FF
:1000B000B70120E030E040E05FE40E94C1010E940F
:1000C000A9039B01AC01205030404040504806C07D
:1000D000C801B7010E94A9039B01AC01B901CA0183
:1000E0001F910F91FF90EF900895A0E0B0E0EBE733
:1000F000F0E00C94B018DC012B01FA019C919230D5
:1001000008F439C1EB018881823008F433C194309E
:1001100069F4843009F02FC111969C91119789815F
:10012000981709F428C1A6E6B0E025C1843009F487
:1001300021C18230A9F4923009F01DC19A01AD01AC
:1001400088E0EA010990AE01E90109929E0181501F
:10015000C1F7E201898111969C918923818308C1AD
:10016000923009F407C112962D903C901397EB0141
:100170008A819B811496AD90BD90CD90DC901797AD
:10018000EC80FD800E811F819101281B390BB90184
:1001900037FF04C066277727621B730B6032710537
:1001A0000CF061C0121613066CF537014801062EDB
:1001B00004C096948794779467940A94D2F721E0C8
:1001C00030E040E050E004C0220F331F441F551FB1
:1001D0006A95D2F721503040404050402E213F21B7
:1001E00040235123211531054105510521F021E01E
:1001F00030E040E050E079018A01E628F72808293C
:1002000019293CC0232BD1F1260E371E350146019A
:10021000062E04C096948794779467940A94D2F734
:1002200021E030E040E050E004C0220F331F441FC3
:10023000551F6A95D2F721503040404050402A2146
:100240003B214C215D21211531054105510521F04E
:1002500021E030E040E050E059016A01A628B728CB
:10026000C828D9280BC0821593052CF01C01AA249C
:10027000BB24650103C0EE24FF24870111969C91E5
:10028000D20111968C91981709F445C0992339F041
:10029000A80197012A193B094C095D0906C0A6016E
:1002A00095012E193F09400B510B57FD08C01182D3
:1002B0003382228224833583468357831DC081E0A5
:1002C00081833382228288279927DC01821B930B4A
:1002D000A40BB50B84839583A683B7830DC0220F2F
:1002E000331F441F551F24833583468357838281E0
:1002F000938101979383828324813581468157813D
:10030000DA01C9010197A109B1098F5F9F4FAF4F72
:10031000BF4328F30BC0918333822282EA0CFB1C7B
:100320000C1D1D1DE482F5820683178383E0808304
:10033000248135814681578157FF1AC0C901AA27F8
:1003400097FDA095BA2F81709070A070B0705695EF
:10035000479537952795822B932BA42BB52B848318
:100360009583A683B7838281938101969383828349
:10037000DF0101C0D201CD01CDB7DEB7E2E10C94BF
:10038000CC18A0E2B0E0E7ECF1E00C94BC18698373
:100390007A838B839C832D833E834F835887E9E048
:1003A000EE2EF12CEC0EFD1ECE010196B7010E943F
:1003B000D2048E010F5E1F4FCE010596B8010E9438
:1003C000D2048A8991E089278A8BC701B801AE01DE
:1003D000475E5F4F0E9475000E94FD03A096E6E015
:1003E0000C94D818A0E2B0E0E8EFF1E00C94BC184F
:1003F00069837A838B839C832D833E834F835887C5
:10040000F9E0EF2EF12CEC0EFD1ECE010196B701A6
:100410000E94D2048E010F5E1F4FCE010596B801D7
:100420000E94D204C701B801AE01475E5F4F0E942F
:1004300075000E94FD03A096E6E00C94D818A0E297
:10044000B0E0E5E2F2E00C94B01869837A838B8324
:100450009C832D833E834F835887CE010196BE0136
:10046000675F7F4F0E94D204CE010596BE016F5E8A
:100470007F4F0E94D2049985923088F0898982301A
:10048000C8F0943019F4823051F404C0843029F457
:10049000923081F486E690E0C6C0923049F420E0C4
:1004A0009A858A89981321E02A87CE010996BBC0D4
:1004B000823049F420E09A858A89981321E02A8BBA
:1004C000CE014196B0C02D843E844F8458886D88FB
:1004D0007E888F88988CEE24FF248701AA24BB2471
:1004E000650140E050E060E070E0E0E0F0E0C10174
:1004F00081709070892BE9F0E60CF71C081D191D1E
:100500009A01AB012A0D3B1D4C1D5D1D80E090E062
:10051000A0E0B0E0E614F7040805190520F481E036
:1005200090E0A0E0B0E0BA01A901480F591F6A1F8E
:100530007B1FAA0CBB1CCC1CDD1C97FE08C081E0F5
:1005400090E0A0E0B0E0A82AB92ACA2ADB2A3196B6
:10055000E032F10549F0660C771C881C991C569412
:10056000479437942794C3CFFA85EA892B893C892D
:100570008B859C85280F391F2E5F3F4F17C0CA01FE
:1005800081709070892B61F016950795F794E79428
:1005900080E090E0A0E0B0E8E82AF92A0A2B1B2BC3
:1005A00076956795579547952F5F3F4F77FDE7CF36
:1005B0000CC0440F551F661F771F17FD4160EE0CDE
:1005C000FF1C001F111F21503040403090E05907A0
:1005D00090E0690790E4790760F32B8F3C8FDB0193
:1005E000CA018F779070A070B07080349105A1051A
:1005F000B10561F447FD0AC0E114F10401051105DC
:1006000029F0405C5F4F6F4F7F4F40781A8EFE1786
:1006100011F081E08A8F4D8F5E8F6F8F78A383E01A
:10062000898FCE0149960E94FD03A096E2E10C94C9
:10063000CC18A8E1B0E0EFE1F3E00C94BC186983BA
:100640007A838B839C832D833E834F83588789E0F5
:10065000E82EF12CEC0EFD1ECE010196B7010E9492
:10066000D2048E010F5E1F4FCE010596B8010E9485
:10067000D2048985823040F08989823028F0C70110
:10068000B8010E944A0501C08FEF6896E6E00C941D
:10069000D818A8E1B0E0EFE4F3E00C94BC1869834B
:1006A0007A838B839C832D833E834F83588789E095
:1006B000E82EF12CEC0EFD1ECE010196B7010E9432
:1006C000D2048E010F5E1F4FCE010596B8010E9425
:1006D000D2048985823040F08989823028F0C701B0
:1006E000B8010E944A0501C08FEF6896E6E00C94BD
:1006F000D818A8E1B0E0EFE7F3E00C94BC186983E8
:100700007A838B839C832D833E834F83588789E034
:10071000E82EF12CEC0EFD1ECE010196B7010E94D1
:10072000D2048E010F5E1F4FCE010596B8010E94C4
:10073000D2048985823040F08989823028F0C7014F
:10074000B8010E944A0501C081E06896E6E00C9479
:10075000D818ACE0B0E0EFEAF3E00C94C01869837D
:100760007A838B839C83CE010196BE016B5F7F4FA2
:100770000E94D2048D81823061F1823050F1843048
:1007800021F48E81882351F12EC02F81388537FDC9
:1007900020C06E812F3131051CF06623F9F023C093
:1007A0008EE190E0821B930B29853A854B855C8511
:1007B00004C056954795379527958A95D2F76623B5
:1007C000B1F050954095309521953F4F4F4F5F4F79
:1007D0000EC020E030E040E050E009C02FEF3FEFD6
:1007E0004FEF5FE704C020E030E040E050E8B9019F
:1007F000CA012C96E2E00C94DC18DF92EF92FF9293
:100800000F931F93FC01E480F58006811781D1804E
:100810008081823048F480E090E0A0E1B0E0E82AF6
:10082000F92A0A2B1B2BA5C0843009F49FC0823003
:1008300021F4EE24FF24870105C0E114F104010531
:10084000110519F4E0E0F0E096C0628173819FEF3A
:10085000623879070CF05BC022E83FEF261B370BAC
:100860002A3131052CF020E030E040E050E02AC091
:10087000B801A701022E04C0769567955795479554
:100880000A94D2F781E090E0A0E0B0E004C0880FC5
:10089000991FAA1FBB1F2A95D2F70197A109B10979
:1008A0008E219F21A023B1230097A105B10521F03E
:1008B00081E090E0A0E0B0E09A01AB01282B392B59
:1008C0004A2B5B2BDA01C9018F779070A070B07052
:1008D00080349105A105B10539F427FF09C0205CDA
:1008E0003F4F4F4F5F4F04C0215C3F4F4F4F5F4F13
:1008F000E0E0F0E02030A0E03A07A0E04A07A0E402
:100900005A0710F0E1E0F0E079018A0127C0603871
:10091000710564F5FB01E158FF4FD801C7018F77DE
:100920009070A070B07080349105A105B10539F4C4
:10093000E7FE0DC080E490E0A0E0B0E004C08FE3EB
:1009400090E0A0E0B0E0E80EF91E0A1F1B1F17FFA1
:1009500005C016950795F794E794319687E01695AC
:100960000795F794E7948A95D1F705C0EE24FF2404
:100970008701EFEFF0E06E2F679566276795902F60
:100980009F77D794DD24D7948E2F8695492F462BB9
:10099000582F5D29B701CA011F910F91FF90EF9069
:1009A000DF900895FC01DB01408151812281622F9B
:1009B0006F7770E0221F2227221F9381892F880FD3
:1009C000822B282F30E0991F9927991F11969C930D
:1009D000119721153105A9F54115510561057105DD
:1009E00011F482E037C082E89FEF13969C938E93B8
:1009F00012979A01AB0167E0220F331F441F551F66
:100A00006A95D1F783E08C930DC0220F331F441FEA
:100A1000551F12968D919C911397019713969C9355
:100A20008E931297203080E0380780E0480780E4FA
:100A3000580758F314962D933D934D935C93179755
:100A400008952F3F310579F4411551056105710570
:100A500019F484E08C93089564FF03C081E08C93C3
:100A600012C01C9210C02F57304013963C932E9307
:100A7000129783E08C9387E0440F551F661F771F02
:100A80008A95D1F7706414964D935D936D937C9322
:100A9000179708951F93DC01FB019C91923008F495
:100AA00047C08081823008F443C0943051F41196DD
:100AB0001C91843099F58181682F70E0611B710968
:100AC0003FC0843021F0923031F48230B9F181811D
:100AD000882389F12DC011961C9111978230F1F075
:100AE00081811817D9F412962D913C911397828128
:100AF00093818217930794F028173907BCF0149656
:100B00008D919D910D90BC91A02D248135814681C0
:100B10005781281739074A075B0718F4112341F05A
:100B20000AC082179307A407B50740F4112319F0F0
:100B300061E070E005C06FEF7FEF02C060E070E041
:100B4000CB011F910895DF93CF93CDB7DEB7E0E4DB
:100B5000F0E086E88083E9E2F0E083E38083AAE2C4
:100B6000B0E0EAE2F0E0808188608C93AAE2B0E035
:100B7000EAE2F0E0808180618C93CF91DF9108956B
:100B8000DF93CF930F92CDB7DEB78983EBE2F0E02E
:100B90008081829586958770882F90E08170907013
:100BA0000097A1F3ECE2F0E0898180830F90CF9170
:100BB000DF910895DF93CF9300D00F92CDB7DEB7CA
:100BC0009B838A8319828981282F30E08A819B81C7
:100BD000FC01E20FF31F80810E94C0050EC08981D5
:100BE0008F5F89838981282F30E08A819B81FC0176
:100BF000E20FF31F80810E94C0058981282F30E019
:100C00008A819B81FC01E20FF31F8081882339F7E1
:100C10008981282F30E08A819B81FC01E20FF31F3C
:100C200010820F900F900F90CF91DF910895DF9376
:100C3000CF93CDB7DEB7EBE2F0E080818823DCF71D
:100C4000ECE2F0E08081CF91DF910895DF93CF93C4
:100C5000CDB7DEB7AAE2B0E0EAE2F0E080818068DA
:100C60008C93CF91DF910895DF93CF93CDB7DEB70B
:100C7000AAE2B0E0EAE2F0E080818F778C93CF9136
:100C8000DF910895DF93CF9300D0CDB7DEB79A837D
:100C9000898389819A818230910531F089819A8195
:100CA00090939900809398000F900F90CF91DF91CF
:100CB0000895DF93CF93CDB7DEB7ECE2F0E080810B
:100CC000CF91DF9108951F920F920FB60F921124CA
:100CD0002F933F934F935F936F937F938F939F9344
:100CE000AF93BF93EF93FF93DF93CF93CDB7DEB76F
:100CF00080919800909199008230910529F0E091BF
:100D00009800F09199000995CF91DF91FF91EF91B3
:100D1000BF91AF919F918F917F916F915F914F9113
:100D20003F912F910F900FBE0F901F901895DF935A
:100D3000CF930F92CDB7DEB789838981882341F4A1
:100D4000ADE2B0E0EDE2F0E0808180618C9307C01D
:100D5000ADE2B0E0EDE2F0E080818F7E8C93ADE219
:100D6000B0E0EDE2F0E0808180648C930F90CF9151
:100D7000DF910895DF93CF930F92CDB7DEB78983CC
:100D8000EFE2F0E089818083EEE2F0E08081882369
:100D9000DCF7AEE2B0E0EEE2F0E0808180688C93B8
:100DA000EFE2F0E080810F90CF91DF910895DF9323
:100DB000CF9300D00F92CDB7DEB79A838983EEE24E
:100DC000F0E0808188234CF4EFE2F0E08081E9815B
:100DD000FA81808381E08B8301C01B828B810F901D
:100DE0000F900F90CF91DF910895DF93CF930F92E3
:100DF000CDB7DEB78983EFE2F0E0898180830F9081
:100E0000CF91DF910895DF93CF93CDB7DEB764978D
:100E10000FB6F894DEBF0FBECDBF888B7A8B698B7F
:100E20004B8BEFE2F0E0888980831F8675C08F8549
:100E30008F5F8F8780E090E0A0E8BFE38B879C877F
:100E4000AD87BE876B857C858D859E8520E030E0F3
:100E50004AE755E40E941F02DC01CB018F8398878B
:100E6000A987BA876F81788589859A8520E030E0E7
:100E700040E85FE30E94790388232CF481E090E04E
:100E80009E838D833FC06F81788589859A8520E018
:100E90003FEF4FE757E40E94190318164CF56B8596
:100EA0007C858D859E8520E030E040E251E40E9403
:100EB0001F02DC01CB01BC01CD010E944900DC0115
:100EC000CB019E838D830FC080E991E09C838B834F
:100ED0008B819C810197F1F79C838B838D819E810F
:100EE00001979E838D838D819E81009769F714C041
:100EF0006F81788589859A850E944900DC01CB0144
:100F00009E838D838D819E819A83898389819A8135
:100F10000197F1F79A838983EEE2F0E080818823DC
:100F20002CF09F858B89981708F481CF9F858B893A
:100F3000981711F41C8A08C0EFE2F0E08081E9897B
:100F4000FA89808381E08C8B8C8964960FB6F89443
:100F5000DEBF0FBECDBFCF91DF910895DF93CF935A
:100F6000CDB7DEB7E1E2F0E01082E0E2F0E080E24F
:100F70008083CF91DF910895DF93CF93CDB7DEB714
:100F8000A6E5B0E0E6E5F0E080818F7D8C93E6E5B4
:100F9000F0E084EE8083E6E5F0E080818823DCF7F2
:100FA000CF91DF910895DF93CF930F92CDB7DEB746
:100FB0008983E3E2F0E089818083A6E5B0E0E6E59D
:100FC000F0E080818F7D8C93E6E5F0E084E880831B
:100FD000E6E5F0E080818823DCF70F90CF91DF9188
:100FE0000895DF93CF9300D0CDB7DEB79A8389837E
:100FF000A6E5B0E0E6E5F0E080818F7D8C93E6E544
:10100000F0E084EC8083E6E5F0E080818823DCF783
:10101000E3E2F0E08081E981FA8180830F900F9014
:10102000CF91DF910895DF93CF9300D0CDB7DEB796
:101030009A838983A6E5B0E0E6E5F0E080818F7DC4
:101040008C93E6E5F0E084E88083E6E5F0E08081DB
:101050008823DCF7E3E2F0E08081E981FA81808394
:101060000F900F90CF91DF910895DF93CF93CDB77D
:10107000DEB7A6E5B0E0E6E5F0E080818F7D8C93F9
:10108000A6E5B0E0E6E5F0E0808180618C93A6E51E
:10109000B0E0E6E5F0E0808180688C93CF91DF914D
:1010A0000895DF93CF9300D0CDB7DEB79A838983BD
:1010B000E1E2F0E08081887FE981FA8180830F900E
:1010C0000F90CF91DF910895DF93CF93CDB7DEB727
:1010D000E6E5F0E084EE8083E6E5F0E080818823B9
:1010E000DCF7CF91DF910895DF93CF93CDB7DEB7D3
:1010F000E6E5F0E084EC8083E6E5F0E0808188239B
:10110000DCF7E3E2F0E08081CF91DF910895DF9397
:10111000CF93CDB7DEB7E6E5F0E084E88083E6E57F
:10112000F0E080818823DCF7E3E2F0E08081CF917A
:10113000DF910895DF93CF930F92CDB7DEB7E6E549
:10114000F0E084EA8083E6E5F0E080818823DCF744
:10115000E1E2F0E08081887F89838981803109F034
:10116000198289810F90CF91DF910895DF93CF93FA
:10117000CDB7DEB72C970FB6F894DEBF0FBECDBF4C
:101180008B836C838B818695869586958A838B81EC
:10119000877089838C81282F30E03C872B878B8553
:1011A0009C858830910509F4CAC02B853C8529307F
:1011B000310509F486C18B859C858730910509F03E
:1011C0003DC28A81282F30E03A87298789859A8510
:1011D0008130910509F43EC029853A8522303105D8
:1011E0002CF489859A85009771F028C229853A8563
:1011F0002230310509F455C089859A8583309105DF
:1012000009F476C01BC2AAE3B0E0EAE3F0E0808113
:10121000482F8981282F30E081E090E002C0880FBC
:10122000991F2A95E2F7842B8C93ABE3B0E0EBE3B4
:10123000F0E08081482F8981282F30E081E090E024
:10124000022E02C0880F991F0A94E2F7809584232A
:101250008C93F4C1A7E3B0E0E7E3F0E08081482F8E
:101260008981282F30E081E090E002C0880F991F2B
:101270002A95E2F7842B8C93A8E3B0E0E8E3F0E052
:101280008081482F8981282F30E081E090E0022E74
:1012900002C0880F991F0A94E2F7809584238C93EB
:1012A000CDC1A4E3B0E0E4E3F0E08081482F898180
:1012B000282F30E081E090E002C0880F991F2A9526
:1012C000E2F7842B8C93A5E3B0E0E5E3F0E08081C6
:1012D000482F8981282F30E081E090E0022E02C063
:1012E000880F991F0A94E2F7809584238C93A6C1F6
:1012F000A1E3B0E0E1E3F0E08081482F8981282F6D
:1013000030E081E090E002C0880F991F2A95E2F753
:10131000842B8C93A2E3B0E0E2E3F0E08081482FDD
:101320008981282F30E081E090E0022E02C0880FF2
:10133000991F0A94E2F7809584238C937FC18A8158
:10134000282F30E038872F838F8198858130910551
:1013500009F43FC02F813885223031052CF48F816C
:101360009885009771F06AC12F8138852230310548
:1013700009F457C08F8198858330910509F479C0AD
:101380005DC1AAE3B0E0EAE3F0E08081482F898103
:10139000282F30E081E090E002C0880F991F2A9545
:1013A000E2F7809584238C93ABE3B0E0EBE3F0E0CD
:1013B0008081482F8981282F30E081E090E0022E43
:1013C00002C0880F991F0A94E2F7809584238C93BA
:1013D00035C1A7E3B0E0E7E3F0E08081482F8981E1
:1013E000282F30E081E090E002C0880F991F2A95F5
:1013F000E2F7809584238C93A8E3B0E0E8E3F0E083
:101400008081482F8981282F30E081E090E0022EF2
:1014100002C0880F991F0A94E2F7809584238C9369
:101420000DC1A4E3B0E0E4E3F0E08081482F8981BE
:10143000282F30E081E090E002C0880F991F2A95A4
:10144000E2F7809584238C93A5E3B0E0E5E3F0E038
:101450008081482F8981282F30E081E090E0022EA2
:1014600002C0880F991F0A94E2F7809584238C9319
:10147000E5C0A1E3B0E0E1E3F0E08081482F89819D
:10148000282F30E081E090E002C0880F991F2A9554
:10149000E2F7809584238C93A2E3B0E0E2E3F0E0EE
:1014A0008081482F8981282F30E081E090E0022E52
:1014B00002C0880F991F0A94E2F7809584238C93C9
:1014C000BDC08A81282F30E03E832D838D819E818F
:1014D0008130910509F43EC02D813E8122303105D5
:1014E0002CF48D819E81009771F0A8C02D813E81E2
:1014F0002230310509F455C08D819E8183309105DC
:1015000009F476C09BC0AAE3B0E0EAE3F0E0808192
:10151000482F8981282F30E081E090E002C0880FB9
:10152000991F2A95E2F7809584238C93ABE3B0E072
:10153000EBE3F0E08081482F8981282F30E081E0C3
:1015400090E0022E02C0880F991F0A94E2F7842BC4
:101550008C9374C0A7E3B0E0E7E3F0E08081482F0C
:101560008981282F30E081E090E002C0880F991F28
:101570002A95E2F7809584238C93A8E3B0E0E8E312
:10158000F0E08081482F8981282F30E081E090E0D1
:10159000022E02C0880F991F0A94E2F7842B8C93C5
:1015A0004DC0A4E3B0E0E4E3F0E08081482F8981FE
:1015B000282F30E081E090E002C0880F991F2A9523
:1015C000E2F7809584238C93A5E3B0E0E5E3F0E0B7
:1015D0008081482F8981282F30E081E090E0022E21
:1015E00002C0880F991F0A94E2F7842B8C9326C0BF
:1015F000A1E3B0E0E1E3F0E08081482F8981282F6A
:1016000030E081E090E002C0880F991F2A95E2F750
:10161000809584238C93A2E3B0E0E2E3F0E0808144
:10162000482F8981282F30E081E090E0022E02C00F
:10163000880F991F0A94E2F7842B8C932C960FB68F
:10164000F894DEBF0FBECDBFCF91DF910895DF9339
:10165000CF93CDB7DEB728970FB6F894DEBF0FBE95
:10166000CDBF8B836C838B818695869586958A8387
:101670008B81877089838C81813009F06FC08A816A
:10168000282F30E038872F838F819885813091050E
:1016900049F12F813885223031052CF48F819885CE
:1016A000009761F0D2C02F8138852230310571F169
:1016B0008F81988583309105E9F1C7C0ABE3B0E035
:1016C000EBE3F0E08081482F8981282F30E081E032
:1016D00090E0022E02C0880F991F0A94E2F7842B33
:1016E0008C93B3C0A8E3B0E0E8E3F0E08081482F3A
:1016F0008981282F30E081E090E0022E02C0880F1F
:10170000991F0A94E2F7842B8C939FC0A5E3B0E065
:10171000E5E3F0E08081482F8981282F30E081E0E7
:1017200090E0022E02C0880F991F0A94E2F7842BE2
:101730008C938BC0A2E3B0E0E2E3F0E08081482F1D
:101740008981282F30E081E090E0022E02C0880FCE
:10175000991F0A94E2F7842B8C9377C08C8188239D
:1017600009F073C08A81282F30E03E832D838D815C
:101770009E818130910559F12D813E8122303105C4
:101780002CF48D819E81009769F05FC02D813E8190
:101790002230310589F18D819E818330910509F4D4
:1017A00040C053C0ABE3B0E0EBE3F0E08081482FF2
:1017B0008981282F30E081E090E0022E02C0880F5E
:1017C000991F0A94E2F7809584238C933EC0A8E386
:1017D000B0E0E8E3F0E08081482F8981282F30E0F5
:1017E00081E090E0022E02C0880F991F0A94E2F770
:1017F000809584238C9329C0A5E3B0E0E5E3F0E075
:101800008081482F8981282F30E081E090E0022EEE
:1018100002C0880F991F0A94E2F7809584238C9365
:1018200014C0A2E3B0E0E2E3F0E08081482F8981B8
:10183000282F30E081E090E0022E02C0880F991F2F
:101840000A94E2F7809584238C9328960FB6F89437
:10185000DEBF0FBECDBFCF91DF910895DF93CF9351
:1018600000D000D000D0CDB7DEB78C838C818695B8
:10187000869586958B838C8187708A8319828B816C
:10188000282F30E03E832D834D815E81413051050C
:1018900041F18D819E818230910534F42D813E810C
:1018A0002115310561F052C04D815E8142305105F4
:1018B00051F18D819E8183309105B9F147C0E9E3F3
:1018C000F0E08081282F30E08A81882F90E0A90104
:1018D00002C0559547958A95E2F7CA0181708983C0
:1018E00035C0E6E3F0E08081282F30E08A81882F40
:1018F00090E0A90102C0559547958A95E2F7CA0183
:101900008170898323C0E3E3F0E08081282F30E0F9
:101910008A81882F90E0A90102C0559547958A9544
:10192000E2F7CA018170898311C0E0E3F0E08081B1
:10193000282F30E08A81882F90E0A90102C05595B8
:1019400047958A95E2F7CA01817089838981269635
:101950000FB6F894DEBF0FBECDBFCF91DF910895D3
:10196000DF93CF930F92CDB7DEB719820EC0898176
:10197000882F90E0FC01E958FF4F90818981692F01
:101980000E94B60889818F5F89838981803278F3CC
:101990000F90CF91DF910895DF93CF9300D000D0C7
:1019A000CDB7DEB789836A838981282F30E03C83F5
:1019B0002B838B819C8181309105D1F02B813C81DF
:1019C000223031052CF48B819C81009761F01EC080
:1019D0002B813C812230310581F08B819C818330C9
:1019E000910581F013C0EBE3F0E08A8180830EC0A3
:1019F000E8E3F0E08A81808309C0E5E3F0E08A81D2
:101A0000808304C0E2E3F0E08A8180830F900F902E
:101A10000F900F90CF91DF910895DF93CF9300D077
:101A200000D00F92CDB7DEB78B838B8186958695DC
:101A300086958A838B81877089838A81282F30E0FD
:101A40003D832C838C819D818130910549F12C81CE
:101A50003D81223031052CF48C819D81009761F00D
:101A60005AC02C813D812230310571F18C819D81DC
:101A700083309105E9F14FC0ABE3B0E0EBE3F0E078
:101A80008081482F8981282F30E081E090E0022E6C
:101A900002C0880F991F0A94E2F784278C933BC0F9
:101AA000A8E3B0E0E8E3F0E08081482F8981282FA7
:101AB00030E081E090E0022E02C0880F991F0A9466
:101AC000E2F784278C9327C0A5E3B0E0E5E3F0E0DC
:101AD0008081482F8981282F30E081E090E0022E1C
:101AE00002C0880F991F0A94E2F784278C9313C0D1
:101AF000A2E3B0E0E2E3F0E08081482F8981282F63
:101B000030E081E090E0022E02C0880F991F0A9415
:101B1000E2F784278C930F900F900F900F900F9007
:101B2000CF91DF910895DF93CF9300D0CDB7DEB78B
:101B30008A838A819AE0692F0E945318892F8983AA
:101B40008A819AE0692F0E9453188A838A81882F9C
:101B500090E082959295907F9827807F9827982F84
:101B60008981892B898389810F900F90CF91DF9193
:101B70000895DF93CF9300D0CDB7DEB78A83198263
:101B80008A81807F89838A818F708A838981829507
:101B90008F70882F90E09C01220F331FC901880F9E
:101BA000991F880F991F820F931F982F8A81890F81
:101BB000898389810F900F90CF91DF910895DF93F2
:101BC000CF93CDB7DEB70E94AE07CF91DF910895D6
:101BD000DF93CF9300D000D00F92CDB7DEB79D83B7
:101BE0008C83EC81FD8182810E94930D8B83EC813B
:101BF000FD8181810E94930D8A8319820E94BC0716
:101C000080ED0E94D30780E00E94D3078B810E9461
:101C1000D3078A810E94D307EC81FD8183818230C2
:101C200051F489818F7B8983EC81FD8180810E94C1
:101C3000930D89831AC0898180648983EC81FD8139
:101C40008381882321F489818F7D898308C0EC8179
:101C5000FD818381813019F4898180628983EC81DF
:101C6000FD8180810E94930D898389810E94D30721
:101C70000E9435080F900F900F900F900F90CF910A
:101C8000DF910895DF93CF9300D000D00F92CDB7AE
:101C9000DEB79D838C8319821A821B820E94BC0747
:101CA00080ED0E94D30780E00E94D3070E949A082B
:101CB00081ED0E94D307CE0101960E94F107898130
:101CC0000E94B90DEC81FD818283CE0102960E94B3
:101CD000F1078A810E94B90DEC81FD818183CE01DB
:101CE00003960E9413088B81829586958695837052
:101CF000882F90E0817090708823F9F08B81829515
:101D000086958770882F90E081709070882359F0B5
:101D1000EC81FD8181E083838B810E94B90DEC8190
:101D2000FD81808314C0EC81FD8113828B810E9430
:101D3000B90DEC81FD8180830AC08B810E94B90DB1
:101D4000EC81FD818083EC81FD8182E083830E94B0
:101D500035080F900F900F900F900F90CF91DF915B
:101D60000895DF93CF9300D000D000D0CDB7DEB779
:101D70009E838D83ED81FE8183818C831B821A82F9
:101D80001982ED81FE8184810E94930D8983ED810A
:101D9000FE8182810E94930D8B83ED81FE81808183
:101DA00091810E94930D8A830E94BC0780ED0E945E
:101DB000D30783E00E94D3078C810E94D3078981D7
:101DC0000E94D3078B810E94D3078A810E94D30788
:101DD0000E94350826960FB6F894DEBF0FBECDBF21
:101DE000CF91DF910895DF93CF9300D000D000D042
:101DF000CDB7DEB79E838D8319821A821B821C8227
:101E00000E94BC0780ED0E94D30783E00E94D307A5
:101E10000E949A0881ED0E94D307CE0101960E948C
:101E2000F1078981ED81FE818383CE0104960E94B2
:101E3000F1078C810E94B90DED81FE818483CE0172
:101E400002960E94F1078A810E94B90DED81FE8100
:101E50008283CE0103960E9413088B810E94B90DE4
:101E6000882F90E0ED81FE81918380830E94350868
:101E700026960FB6F894DEBF0FBECDBFCF91DF918F
:101E80000895DF93CF93CDB7DEB7E9970FB6F894F7
:101E9000DEBF0FBECDBF89AF83E060E00E94270B9D
:101EA00089AD982F991F9927991F8CE0692F0E945F
:101EB000270B89AD8295869586958370982F9170B2
:101EC0008AE0692F0E94270B89AD829586958770DD
:101ED000982F917089E0692F0E94270B89AD829518
:101EE0008F70982F917088E0692F0E94270B82E0F5
:101EF00061E00E94270B80E090E0A0E8BFE38DAB9B
:101F00009EABAFABB8AF6DA97EA98FA998AD20E00D
:101F100030E04AE755E40E941F02DC01CB0189ABA7
:101F20009AABABABBCAB69A97AA98BA99CA920E001
:101F300030E040E85FE30E94790388232CF481E0DD
:101F400090E098AB8FA73FC069A97AA98BA99CA9FB
:101F500020E03FEF4FE757E40E94190318164CF5B5
:101F60006DA97EA98FA998AD20E030E040E251E450
:101F70000E941F02DC01CB01BC01CD010E9449007F
:101F8000DC01CB0198AB8FA70FC080E991E09EA741
:101F90008DA78DA59EA50197F1F79EA78DA78FA56B
:101FA00098A9019798AB8FA78FA598A9009769F773
:101FB00014C069A97AA98BA99CA90E944900DC01D7
:101FC000CB0198AB8FA78FA598A99CA78BA78BA5B2
:101FD0009CA50197F1F79CA78BA782E060E00E9487
:101FE000270B80E090E0A0E8BFE38FA398A7A9A704
:101FF000BAA76FA178A589A59AA520E030E04AE7A5
:1020000055E40E941F02DC01CB018BA39CA3ADA36E
:10201000BEA36BA17CA18DA19EA120E030E040E891
:102020005FE30E94790388232CF481E090E09AA377
:1020300089A33FC06BA17CA18DA19EA120E03FEFB1
:102040004FE757E40E94190318164CF56FA178A5C5
:1020500089A59AA520E030E040E251E40E941F02E9
:10206000DC01CB01BC01CD010E944900DC01CB01A8
:102070009AA389A30FC080E991E098A38F8F8F8DD9
:1020800098A10197F1F798A38F8F89A19AA1019741
:102090009AA389A389A19AA1009769F714C06BA19B
:1020A0007CA18DA19EA10E944900DC01CB019AA3D5
:1020B00089A389A19AA19E8F8D8F8D8D9E8D019769
:1020C000F1F79E8F8D8F89AD869586958695982F91
:1020D00091708CE0692F0E94270B89AD86958695BB
:1020E000982F91708AE0692F0E94270B89AD869501
:1020F000982F917089E0692F0E94270B89AD982F46
:10210000917088E0692F0E94270B82E061E00E94B5
:10211000270B80E090E0A0E8BFE3898F9A8FAB8F18
:10212000BC8F698D7A8D8B8D9C8D20E030E04AE7E5
:1021300055E40E941F02DC01CB018D8B9E8BAF8B7F
:10214000B88F6D897E898F89988D20E030E040E8D6
:102150005FE30E94790388232CF481E090E09C8B5C
:102160008B8B3FC06D897E898F89988D20E03FEFF2
:102170004FE757E40E94190318164CF5698D7A8DC4
:102180008B8D9C8D20E030E040E251E40E941F02E4
:10219000DC01CB01BC01CD010E944900DC01CB0177
:1021A0009C8B8B8B0FC080E991E09A8B898B8989FE
:1021B0009A890197F1F79A8B898B8B899C89019772
:1021C0009C8B8B8B8B899C89009769F714C06D89D8
:1021D0007E898F89988D0E944900DC01CB019C8B00
:1021E0008B8B8B899C89988B8F878F85988901979A
:1021F000F1F7988B8F8782E060E00E94270B80E0E8
:1022000090E0A0E8BFE38B879C87AD87BE876B8596
:102210007C858D859E8520E030E04AE755E40E946C
:102220001F02DC01CB018F839887A987BA876F8152
:10223000788589859A8520E030E040E85FE30E9458
:10224000790388232CF481E090E09E838D833FC046
:102250006F81788589859A8520E03FEF4FE757E4C5
:102260000E94190318164CF56B857C858D859E851B
:1022700020E030E040E251E40E941F02DC01CB018B
:10228000BC01CD010E944900DC01CB019E838D83FE
:102290000FC080E991E09C838B838B819C810197A7
:1022A000F1F79C838B838D819E8101979E838D8323
:1022B0008D819E81009769F714C06F81788589852B
:1022C0009A850E944900DC01CB019E838D838D811C
:1022D0009E819A83898389819A810197F1F79A83F4
:1022E0008983E9960FB6F894DEBF0FBECDBFCF91BC
:1022F000DF910895DF93CF93CDB7DEB7E9970FB69F
:10230000F894DEBF0FBECDBF89AF83E061E00E94CD
:10231000270B89AD982F991F9927991F8CE0692F5A
:102320000E94270B89AD8295869586958370982F9C
:1023300091708AE0692F0E94270B89AD829586955E
:102340008770982F917089E0692F0E94270B89ADC3
:1023500082958F70982F917088E0692F0E94270BCB
:1023600082E061E00E94270B80E090E0A0E8BFE3FC
:102370008DAB9EABAFABB8AF6DA97EA98FA998AD61
:1023800020E030E04AE755E40E941F02DC01CB0167
:1023900089AB9AABABABBCAB69A97AA98BA99CA959
:1023A00020E030E040E85FE30E94790388232CF4CA
:1023B00081E090E098AB8FA73FC069A97AA98BA96B
:1023C0009CA920E03FEF4FE757E40E94190318163D
:1023D0004CF56DA97EA98FA998AD20E030E040E2D0
:1023E00051E40E941F02DC01CB01BC01CD010E941F
:1023F0004900DC01CB0198AB8FA70FC080E991E0C9
:102400009EA78DA78DA59EA50197F1F79EA78DA7E5
:102410008FA598A9019798AB8FA78FA598A900972A
:1024200069F714C069A97AA98BA99CA90E944900DF
:10243000DC01CB0198AB8FA78FA598A99CA78BA790
:102440008BA59CA50197F1F79CA78BA782E060E084
:102450000E94270B80E090E0A0E8BFE38FA398A73D
:10246000A9A7BAA76FA178A589A59AA520E030E011
:102470004AE755E40E941F02DC01CB018BA39CA319
:10248000ADA3BEA36BA17CA18DA19EA120E030E0F5
:1024900040E85FE30E94790388232CF481E090E018
:1024A0009AA389A33FC06BA17CA18DA19EA120E02E
:1024B0003FEF4FE757E40E94190318164CF56FA140
:1024C00078A589A59AA520E030E040E251E40E9479
:1024D0001F02DC01CB01BC01CD010E944900DC01DF
:1024E000CB019AA389A30FC080E991E098A38F8FB5
:1024F0008F8D98A10197F1F798A38F8F89A19AA149
:1025000001979AA389A389A19AA1009769F714C09A
:102510006BA17CA18DA19EA10E944900DC01CB0191
:102520009AA389A389A19AA19E8F8D8F8D8D9E8D4F
:102530000197F1F79E8F8D8F89AD8695869586954B
:10254000982F91708CE0692F0E94270B89AD86959A
:102550008695982F91708AE0692F0E94270B89AD8C
:102560008695982F917089E0692F0E94270B89AD7D
:10257000982F917088E0692F0E94270B82E061E01C
:102580000E94270B80E090E0A0E8BFE3898F9A8F3C
:10259000AB8FBC8F698D7A8D8B8D9C8D20E030E068
:1025A0004AE755E40E941F02DC01CB018D8B9E8B14
:1025B000AF8BB88F6D897E898F89988D20E030E050
:1025C00040E85FE30E94790388232CF481E090E0E7
:1025D0009C8B8B8B3FC06D897E898F89988D20E085
:1025E0003FEF4FE757E40E94190318164CF5698D29
:1025F0007A8D8B8D9C8D20E030E040E251E40E948A
:102600001F02DC01CB01BC01CD010E944900DC01AD
:10261000CB019C8B8B8B0FC080E991E09A8B898BCF
:1026200089899A890197F1F79A8B898B8B899C8983
:1026300001979C8B8B8B8B899C89009769F714C0C1
:102640006D897E898F89988D0E944900DC01CB01BC
:102650009C8B8B8B8B899C89988B8F878F85988996
:102660000197F1F7988B8F8782E060E00E94270B3B
:1026700080E090E0A0E8BFE38B879C87AD87BE87B2
:102680006B857C858D859E8520E030E04AE755E4AA
:102690000E941F02DC01CB018F839887A987BA872C
:1026A0006F81788589859A8520E030E040E85FE396
:1026B0000E94790388232CF481E090E09E838D832F
:1026C0003FC06F81788589859A8520E03FEF4FE78D
:1026D00057E40E94190318164CF56B857C858D858F
:1026E0009E8520E030E040E251E40E941F02DC01C0
:1026F000CB01BC01CD010E944900DC01CB019E83CE
:102700008D830FC080E991E09C838B838B819C81BA
:102710000197F1F79C838B838D819E8101979E8326
:102720008D838D819E81009769F714C06F817885B4
:1027300089859A850E944900DC01CB019E838D83A7
:102740008D819E819A83898389819A810197F1F78E
:102750009A838983E9960FB6F894DEBF0FBECDBF8A
:10276000CF91DF910895DF93CF93CDB7DEB76C970C
:102770000FB6F894DEBF0FBECDBF80E090E0A8E4B6
:10278000B2E4898F9A8FAB8FBC8F698D7A8D8B8DD8
:102790009C8D20E030E04AE755E40E941F02DC01F6
:1027A000CB018D8B9E8BAF8BB88F6D897E898F8986
:1027B000988D20E030E040E85FE30E9479038823B1
:1027C0002CF481E090E09C8B8B8B3FC06D897E89DF
:1027D0008F89988D20E03FEF4FE757E40E9419035F
:1027E00018164CF5698D7A8D8B8D9C8D20E030E02C
:1027F00040E251E40E941F02DC01CB01BC01CD018B
:102800000E944900DC01CB019C8B8B8B0FC080E9BF
:1028100091E09A8B898B89899A890197F1F79A8B34
:10282000898B8B899C8901979C8B8B8B8B899C894D
:10283000009769F714C06D897E898F89988D0E94F1
:102840004900DC01CB019C8B8B8B8B899C89988BFD
:102850008F878F8598890197F1F7988B8F8782E012
:102860000E94410F88E20E94410F8CE00E94410FBC
:1028700081E00E94410F80E090E0A0E8BFE38B87F9
:102880009C87AD87BE876B857C858D859E8520E086
:1028900030E04AE755E40E941F02DC01CB018F8340
:1028A0009887A987BA876F81788589859A8520E07E
:1028B00030E040E85FE30E94790388232CF481E054
:1028C00090E09E838D833FC06F81788589859A854E
:1028D00020E03FEF4FE757E40E94190318164CF52C
:1028E0006B857C858D859E8520E030E040E251E45B
:1028F0000E941F02DC01CB01BC01CD010E944900F6
:10290000DC01CB019E838D830FC080E991E09C8325
:102910008B838B819C810197F1F79C838B838D81C5
:102920009E8101979E838D838D819E81009769F79B
:1029300014C06F81788589859A850E944900DC01E1
:10294000CB019E838D838D819E819A83898389812A
:102950009A810197F1F79A83898386E00E94410F5B
:102960006C960FB6F894DEBF0FBECDBFCF91DF914E
:102970000895DF93CF93CDB7DEB72E970FB6F894B7
:10298000DEBF0FBECDBF81E00E94410F80E090E02E
:10299000A0E0B0E48B879C87AD87BE876B857C8584
:1029A0008D859E8520E030E04AE755E40E941F02B5
:1029B000DC01CB018F839887A987BA876F817885DF
:1029C00089859A8520E030E040E85FE30E94790342
:1029D00088232CF481E090E09E838D833FC06F813B
:1029E000788589859A8520E03FEF4FE757E40E947C
:1029F000190318164CF56B857C858D859E8520E026
:102A000030E040E251E40E941F02DC01CB01BC0136
:102A1000CD010E944900DC01CB019E838D830FC054
:102A200080E991E09C838B838B819C810197F1F7F6
:102A30009C838B838D819E8101979E838D838D8165
:102A40009E81009769F714C06F81788589859A8582
:102A50000E944900DC01CB019E838D838D819E8184
:102A60009A83898389819A810197F1F79A8389836F
:102A70002E960FB6F894DEBF0FBECDBFCF91DF917B
:102A800008950F931F93DF93CF93CDB7DEB766976B
:102A90000FB6F894DEBF0FBECDBF6B8B7C8B8D8BDA
:102AA0009E8B1A828B899C89AD89BE890097A1056E
:102AB000B10521F480E30E94D01567C08B899C8901
:102AC000AD89BE89BB230CF041C08DE20E94D015B8
:102AD0008B899C89AD89BE89B095A095909581958B
:102AE0009F4FAF4FBF4F8B8B9C8BAD8BBE8B2EC040
:102AF0008A81082F10E08B899C89AD89BE892AE0E4
:102B000030E040E050E0BC01CD010E947318DC01D0
:102B1000CB01282F205DCE010396FC01E00FF11FB1
:102B200020838B899C89AD89BE892AE030E040E012
:102B300050E0BC01CD010E947318DA01C9018B8BF2
:102B40009C8BAD8BBE8B8A818F5F8A838B899C899E
:102B5000AD89BE890097A105B10551F68A818150E2
:102B6000898310C08981282F332727FD3095CE0116
:102B70000396FC01E20FF31F80810E94D01589812A
:102B800081508983898188236CF766960FB6F89403
:102B9000DEBF0FBECDBFCF91DF911F910F91089582
:102BA000DF93CF930F92CDB7DEB7898389810E94DF
:102BB0007A110F90CF91DF910895DF93CF9300D0DA
:102BC0000F92CDB7DEB79B838A8319820EC08981AD
:102BD000282F30E08A819B81FC01E20FF31F808166
:102BE0000E94D01589818F5F89838981282F30E0E9
:102BF0008A819B81FC01E20FF31F8081882339F7D2
:102C00000F900F900F90CF91DF910895DF93CF93A6
:102C100000D0CDB7DEB78A8380E690E00E94DD1554
:102C200088E089831BC08A81282F30E08981882F22
:102C300090E0A90102C0559547958A95E2F7CA012F
:102C400081709070882321F081E30E94D01503C029
:102C500080E30E94D01589818150898389818823EE
:102C600011F70F900F90CF91DF910895DF93CF93DD
:102C700000D00F92CDB7DEB789838981282F30E04D
:102C80003B832A838A819B818C30910541F12A8183
:102C90003B812D3031055CF48A819B818A3091051E
:102CA000B1F02A813B812B303105A9F028C08A81FF
:102CB0009B818E309105D9F02A813B812E303105E0
:102CC00094F08A819B818F309105A9F018C081E42E
:102CD0000E94D0151DC082E40E94D01519C083E463
:102CE0000E94D01515C084E40E94D01511C085E45F
:102CF0000E94D0150DC086E40E94D01509C08981BC
:102D0000882F90E0A0E0B0E0BC01CD010E94411509
:102D10000F900F900F90CF91DF910895DF93CF9395
:102D2000CDB7DEB761970FB6F894DEBF0FBECDBF4B
:102D3000898B83E690E00E94DD151B821A8219823E
:102D400081E08D8382E08E8384E08F8388E08887B2
:102D50001C821BC08C81482F50E08989282F30E0CD
:102D60008C81882F90E0B90102C0759567958A958E
:102D7000E2F7CB01282F2170CE010996FC01E40F68
:102D8000F51F20838C818F5F8C838C81883010F3BA
:102D900084E08C8329C08C81282F30E0CE010996F5
:102DA000FC01E20FF31F80818130C1F48C81282F58
:102DB00030E0CE010996FC01E20FF31F40818B81C8
:102DC000282F30E0CE010596FC01E20FF31F808131
:102DD000489F902D11248981890F89838B818F5F72
:102DE0008B838C818F5F8C838C818830A0F289816A
:102DF0000E9436161B821C8229C08C81282F30E04D
:102E0000CE010996FC01E20FF31F80818130C1F4ED
:102E10008C81282F30E0CE010996FC01E20FF31FD0
:102E200040818B81282F30E0CE010596FC01E20F16
:102E3000F31F8081489F902D11248A81890F8A83F6
:102E40008B818F5F8B838C818F5F8C838C818430AF
:102E5000A0F28A810E94361661960FB6F894DEBF02
:102E60000FBECDBFCF91DF910895DF93CF9300D0F8
:102E7000CDB7DEB789836A838981882329F48A8163
:102E800080680E94410F07C08981813021F48A81C6
:102E9000806C0E94410F0F900F90CF91DF910895A9
:102EA000DF93CF93CDB7DEB728970FB6F894DEBF88
:102EB0000FBECDBF98878F831A8219828F81988524
:102EC00027E28031920748F51A8223C08A81282F91
:102ED00030E083E090E0FC01E21BF30B8F819885EA
:102EE0002AE030E0B9010E945F18282F205DCE0152
:102EF0000396E80FF91F20838F8198852AE030E040
:102F0000B9010E945F18CB0198878F838A818F5FF8
:102F10008A838A818430D0F232C08F8198852AE0FA
:102F200030E0B9010E945F18CB0198878F831A8225
:102F300023C08A81282F30E083E090E0FC01E21B6F
:102F4000F30B8F8198852AE030E0B9010E945F1869
:102F5000282F205DCE010396E80FF91F20838F8173
:102F600098852AE030E0B9010E945F18CB0198876C
:102F70008F838A818F5F8A838A818430D0F219821D
:102F80000EC08981282F30E0CE010396FC01E20FAC
:102F9000F31F80810E94D01589818F5F8983898189
:102FA000843078F328960FB6F894DEBF0FBECDBFFD
:102FB000CF91DF910895DF93CF9300D000D0CDB7AC
:102FC000DEB78A836B834C838A816B810E943517BD
:102FD000198206C080E20E94D01589818F5F8983A3
:102FE00099818C819817B0F30F900F900F900F90EC
:102FF000CF91DF910895DF93CF93CDB7DEB72797B9
:103000000FB6F894DEBF0FBECDBF9C838B836D835C
:103010004E832F8319828D81882F90E0880F991F0E
:10302000880F991F880F991F89838981805C0E946E
:10303000410F1A820EC08A81282F30E08B819C813B
:10304000FC01E20FF31F80810E947A118A818F5F59
:103050008A838A81883078F38E816F810E94351748
:103060008D810E947A1127960FB6F894DEBF0FBEAD
:10307000CDBFCF91DF910895DF93CF93CDB7DEB76A
:103080000E94DF0D83E790E00E94E80D8EE690E05D
:103090000E94B10E83E790E00E94420E8EE690E01F
:1030A0000E94F30EFFCF991B79E004C0991F961779
:1030B00008F0961B881F7A95C9F780950895AA1B7A
:1030C000BB1B51E107C0AA1FBB1FA617B70710F013
:1030D000A61BB70B881F991F5A95A9F78095909545
:1030E000BC01CD01089597FB092E05260ED057FD92
:1030F00004D014D00AD0001C38F450954095309577
:1031000021953F4F4F4F5F4F0895F6F7909580956B
:10311000709561957F4F8F4F9F4F0895A1E21A2EB2
:10312000AA1BBB1BFD010DC0AA1FBB1FEE1FFF1F6B
:10313000A217B307E407F50720F0A21BB30BE40BBB
:10314000F50B661F771F881F991F1A9469F7609502
:103150007095809590959B01AC01BD01CF010895BC
:103160002F923F924F925F926F927F928F929F9297
:10317000AF92BF92CF92DF92EF92FF920F931F9385
:10318000CF93DF93CDB7DEB7CA1BDB0B0FB6F89436
:10319000DEBF0FBECDBF09942A88398848885F8476
:1031A0006E847D848C849B84AA84B984C884DF80E7
:1031B000EE80FD800C811B81AA81B981CE0FD11DCB
:1031C0000FB6F894DEBF0FBECDBFED010895F894A1
:0231D000FFCF2F
:1031D200306200307800000000000000000018009B
:1031E2000C0605160C19020707070707070707074A
:1031F200070707070707070707070707070707075D
:08320200070709070707070091
:00000001FF
